{
  "abi": [
    {
      "inputs": [],
      "stateMutability": "nonpayable",
      "type": "constructor"
    },
    {
      "inputs": [],
      "name": "ERC721EnumerableForbiddenBatchMint",
      "type": "error"
    },
    {
      "inputs": [
        {
          "internalType": "address",
          "name": "sender",
          "type": "address"
        },
        {
          "internalType": "uint256",
          "name": "tokenId",
          "type": "uint256"
        },
        {
          "internalType": "address",
          "name": "owner",
          "type": "address"
        }
      ],
      "name": "ERC721IncorrectOwner",
      "type": "error"
    },
    {
      "inputs": [
        {
          "internalType": "address",
          "name": "operator",
          "type": "address"
        },
        {
          "internalType": "uint256",
          "name": "tokenId",
          "type": "uint256"
        }
      ],
      "name": "ERC721InsufficientApproval",
      "type": "error"
    },
    {
      "inputs": [
        {
          "internalType": "address",
          "name": "approver",
          "type": "address"
        }
      ],
      "name": "ERC721InvalidApprover",
      "type": "error"
    },
    {
      "inputs": [
        {
          "internalType": "address",
          "name": "operator",
          "type": "address"
        }
      ],
      "name": "ERC721InvalidOperator",
      "type": "error"
    },
    {
      "inputs": [
        {
          "internalType": "address",
          "name": "owner",
          "type": "address"
        }
      ],
      "name": "ERC721InvalidOwner",
      "type": "error"
    },
    {
      "inputs": [
        {
          "internalType": "address",
          "name": "receiver",
          "type": "address"
        }
      ],
      "name": "ERC721InvalidReceiver",
      "type": "error"
    },
    {
      "inputs": [
        {
          "internalType": "address",
          "name": "sender",
          "type": "address"
        }
      ],
      "name": "ERC721InvalidSender",
      "type": "error"
    },
    {
      "inputs": [
        {
          "internalType": "uint256",
          "name": "tokenId",
          "type": "uint256"
        }
      ],
      "name": "ERC721NonexistentToken",
      "type": "error"
    },
    {
      "inputs": [
        {
          "internalType": "address",
          "name": "owner",
          "type": "address"
        },
        {
          "internalType": "uint256",
          "name": "index",
          "type": "uint256"
        }
      ],
      "name": "ERC721OutOfBoundsIndex",
      "type": "error"
    },
    {
      "anonymous": false,
      "inputs": [
        {
          "indexed": true,
          "internalType": "address",
          "name": "owner",
          "type": "address"
        },
        {
          "indexed": true,
          "internalType": "address",
          "name": "approved",
          "type": "address"
        },
        {
          "indexed": true,
          "internalType": "uint256",
          "name": "tokenId",
          "type": "uint256"
        }
      ],
      "name": "Approval",
      "type": "event"
    },
    {
      "anonymous": false,
      "inputs": [
        {
          "indexed": true,
          "internalType": "address",
          "name": "owner",
          "type": "address"
        },
        {
          "indexed": true,
          "internalType": "address",
          "name": "operator",
          "type": "address"
        },
        {
          "indexed": false,
          "internalType": "bool",
          "name": "approved",
          "type": "bool"
        }
      ],
      "name": "ApprovalForAll",
      "type": "event"
    },
    {
      "anonymous": false,
      "inputs": [
        {
          "indexed": true,
          "internalType": "address",
          "name": "from",
          "type": "address"
        },
        {
          "indexed": true,
          "internalType": "address",
          "name": "to",
          "type": "address"
        },
        {
          "indexed": true,
          "internalType": "uint256",
          "name": "tokenId",
          "type": "uint256"
        }
      ],
      "name": "Transfer",
      "type": "event"
    },
    {
      "inputs": [
        {
          "internalType": "address",
          "name": "to",
          "type": "address"
        },
        {
          "internalType": "uint256",
          "name": "tokenId",
          "type": "uint256"
        }
      ],
      "name": "approve",
      "outputs": [],
      "stateMutability": "nonpayable",
      "type": "function"
    },
    {
      "inputs": [
        {
          "internalType": "address",
          "name": "owner",
          "type": "address"
        }
      ],
      "name": "balanceOf",
      "outputs": [
        {
          "internalType": "uint256",
          "name": "",
          "type": "uint256"
        }
      ],
      "stateMutability": "view",
      "type": "function"
    },
    {
      "inputs": [
        {
          "internalType": "uint256",
          "name": "tokenId",
          "type": "uint256"
        }
      ],
      "name": "getApproved",
      "outputs": [
        {
          "internalType": "address",
          "name": "",
          "type": "address"
        }
      ],
      "stateMutability": "view",
      "type": "function"
    },
    {
      "inputs": [
        {
          "internalType": "address",
          "name": "owner",
          "type": "address"
        },
        {
          "internalType": "address",
          "name": "operator",
          "type": "address"
        }
      ],
      "name": "isApprovedForAll",
      "outputs": [
        {
          "internalType": "bool",
          "name": "",
          "type": "bool"
        }
      ],
      "stateMutability": "view",
      "type": "function"
    },
    {
      "inputs": [],
      "name": "mint",
      "outputs": [],
      "stateMutability": "nonpayable",
      "type": "function"
    },
    {
      "inputs": [],
      "name": "name",
      "outputs": [
        {
          "internalType": "string",
          "name": "",
          "type": "string"
        }
      ],
      "stateMutability": "view",
      "type": "function"
    },
    {
      "inputs": [
        {
          "internalType": "uint256",
          "name": "tokenId",
          "type": "uint256"
        }
      ],
      "name": "ownerOf",
      "outputs": [
        {
          "internalType": "address",
          "name": "",
          "type": "address"
        }
      ],
      "stateMutability": "view",
      "type": "function"
    },
    {
      "inputs": [
        {
          "internalType": "address",
          "name": "from",
          "type": "address"
        },
        {
          "internalType": "address",
          "name": "to",
          "type": "address"
        },
        {
          "internalType": "uint256",
          "name": "tokenId",
          "type": "uint256"
        }
      ],
      "name": "safeTransferFrom",
      "outputs": [],
      "stateMutability": "nonpayable",
      "type": "function"
    },
    {
      "inputs": [
        {
          "internalType": "address",
          "name": "from",
          "type": "address"
        },
        {
          "internalType": "address",
          "name": "to",
          "type": "address"
        },
        {
          "internalType": "uint256",
          "name": "tokenId",
          "type": "uint256"
        },
        {
          "internalType": "bytes",
          "name": "data",
          "type": "bytes"
        }
      ],
      "name": "safeTransferFrom",
      "outputs": [],
      "stateMutability": "nonpayable",
      "type": "function"
    },
    {
      "inputs": [
        {
          "internalType": "address",
          "name": "operator",
          "type": "address"
        },
        {
          "internalType": "bool",
          "name": "approved",
          "type": "bool"
        }
      ],
      "name": "setApprovalForAll",
      "outputs": [],
      "stateMutability": "nonpayable",
      "type": "function"
    },
    {
      "inputs": [
        {
          "internalType": "bytes4",
          "name": "interfaceId",
          "type": "bytes4"
        }
      ],
      "name": "supportsInterface",
      "outputs": [
        {
          "internalType": "bool",
          "name": "",
          "type": "bool"
        }
      ],
      "stateMutability": "view",
      "type": "function"
    },
    {
      "inputs": [],
      "name": "symbol",
      "outputs": [
        {
          "internalType": "string",
          "name": "",
          "type": "string"
        }
      ],
      "stateMutability": "view",
      "type": "function"
    },
    {
      "inputs": [
        {
          "internalType": "uint256",
          "name": "index",
          "type": "uint256"
        }
      ],
      "name": "tokenByIndex",
      "outputs": [
        {
          "internalType": "uint256",
          "name": "",
          "type": "uint256"
        }
      ],
      "stateMutability": "view",
      "type": "function"
    },
    {
      "inputs": [
        {
          "internalType": "address",
          "name": "owner",
          "type": "address"
        },
        {
          "internalType": "uint256",
          "name": "index",
          "type": "uint256"
        }
      ],
      "name": "tokenOfOwnerByIndex",
      "outputs": [
        {
          "internalType": "uint256",
          "name": "",
          "type": "uint256"
        }
      ],
      "stateMutability": "view",
      "type": "function"
    },
    {
      "inputs": [
        {
          "internalType": "uint256",
          "name": "tokenId",
          "type": "uint256"
        }
      ],
      "name": "tokenURI",
      "outputs": [
        {
          "internalType": "string",
          "name": "",
          "type": "string"
        }
      ],
      "stateMutability": "view",
      "type": "function"
    },
    {
      "inputs": [],
      "name": "totalSupply",
      "outputs": [
        {
          "internalType": "uint256",
          "name": "",
          "type": "uint256"
        }
      ],
      "stateMutability": "view",
      "type": "function"
    },
    {
      "inputs": [
        {
          "internalType": "address",
          "name": "from",
          "type": "address"
        },
        {
          "internalType": "address",
          "name": "to",
          "type": "address"
        },
        {
          "internalType": "uint256",
          "name": "tokenId",
          "type": "uint256"
        }
      ],
      "name": "transferFrom",
      "outputs": [],
      "stateMutability": "nonpayable",
      "type": "function"
    }
  ],
  "bytecode": {
    "object": "0x60806040523480156200001157600080fd5b506040518060400160405280600381526020016213919560ea1b815250604051806040016040528060078152602001665553454c45535360c81b81525081600090816200005f91906200011c565b5060016200006e82826200011c565b505050620001e8565b634e487b7160e01b600052604160045260246000fd5b600181811c90821680620000a257607f821691505b602082108103620000c357634e487b7160e01b600052602260045260246000fd5b50919050565b601f8211156200011757600081815260208120601f850160051c81016020861015620000f25750805b601f850160051c820191505b818110156200011357828155600101620000fe565b5050505b505050565b81516001600160401b0381111562000138576200013862000077565b62000150816200014984546200008d565b84620000c9565b602080601f8311600181146200018857600084156200016f5750858301515b600019600386901b1c1916600185901b17855562000113565b600085815260208120601f198616915b82811015620001b95788860151825594840194600190910190840162000198565b5085821015620001d85787850151600019600388901b60f8161c191681555b5050505050600190811b01905550565b61137280620001f86000396000f3fe608060405234801561001057600080fd5b506004361061010b5760003560e01c806342842e0e116100a257806395d89b411161007157806395d89b4114610219578063a22cb46514610221578063b88d4fde14610234578063c87b56dd14610247578063e985e9c51461025a57600080fd5b806342842e0e146101cd5780634f6ccce7146101e05780636352211e146101f357806370a082311461020657600080fd5b80631249c58b116100de5780631249c58b1461018d57806318160ddd1461019557806323b872dd146101a75780632f745c59146101ba57600080fd5b806301ffc9a71461011057806306fdde0314610138578063081812fc1461014d578063095ea7b314610178575b600080fd5b61012361011e366004610f95565b61026d565b60405190151581526020015b60405180910390f35b61014061027e565b60405161012f9190611002565b61016061015b366004611015565b610310565b6040516001600160a01b03909116815260200161012f565b61018b61018636600461104a565b610339565b005b61018b610348565b6008545b60405190815260200161012f565b61018b6101b5366004611074565b61035c565b6101996101c836600461104a565b6103ec565b61018b6101db366004611074565b610451565b6101996101ee366004611015565b610471565b610160610201366004611015565b6104ca565b6101996102143660046110b0565b6104d5565b61014061051d565b61018b61022f3660046110cb565b61052c565b61018b61024236600461111d565b610537565b610140610255366004611015565b61054e565b6101236102683660046111f9565b6105c3565b6000610278826105f1565b92915050565b60606000805461028d9061122c565b80601f01602080910402602001604051908101604052809291908181526020018280546102b99061122c565b80156103065780601f106102db57610100808354040283529160200191610306565b820191906000526020600020905b8154815290600101906020018083116102e957829003601f168201915b5050505050905090565b600061031b82610616565b506000828152600460205260409020546001600160a01b0316610278565b61034482823361064f565b5050565b61035a3361035560085490565b61065c565b565b6001600160a01b03821661038b57604051633250574960e11b8152600060048201526024015b60405180910390fd5b60006103988383336106c1565b9050836001600160a01b0316816001600160a01b0316146103e6576040516364283d7b60e01b81526001600160a01b0380861660048301526024820184905282166044820152606401610382565b50505050565b60006103f7836104d5565b82106104285760405163295f44f760e21b81526001600160a01b038416600482015260248101839052604401610382565b506001600160a01b03919091166000908152600660209081526040808320938352929052205490565b61046c83838360405180602001604052806000815250610537565b505050565b600061047c60085490565b82106104a55760405163295f44f760e21b81526000600482015260248101839052604401610382565b600882815481106104b8576104b8611266565b90600052602060002001549050919050565b600061027882610616565b60006001600160a01b038216610501576040516322718ad960e21b815260006004820152602401610382565b506001600160a01b031660009081526003602052604090205490565b60606001805461028d9061122c565b6103443383836106d6565b61054284848461035c565b6103e684848484610775565b606061055982610616565b50600061057160408051602081019091526000815290565b9050600081511161059157604051806020016040528060008152506105bc565b8061059b8461089e565b6040516020016105ac92919061127c565b6040516020818303038152906040525b9392505050565b6001600160a01b03918216600090815260056020908152604080832093909416825291909152205460ff1690565b60006001600160e01b0319821663780e9d6360e01b1480610278575061027882610931565b6000818152600260205260408120546001600160a01b03168061027857604051637e27328960e01b815260048101849052602401610382565b61046c8383836001610981565b6001600160a01b03821661068657604051633250574960e11b815260006004820152602401610382565b6000610694838360006106c1565b90506001600160a01b0381161561046c576040516339e3563760e11b815260006004820152602401610382565b60006106ce848484610a87565b949350505050565b6001600160a01b03821661070857604051630b61174360e31b81526001600160a01b0383166004820152602401610382565b6001600160a01b03838116600081815260056020908152604080832094871680845294825291829020805460ff191686151590811790915591519182527f17307eab39ab6107e8899845ad3d59bd9653f200f220920489ca2b5937696c31910160405180910390a3505050565b6001600160a01b0383163b156103e657604051630a85bd0160e11b81526001600160a01b0384169063150b7a02906107b79033908890879087906004016112ab565b6020604051808303816000875af19250505080156107f2575060408051601f3d908101601f191682019092526107ef918101906112e8565b60015b61085b573d808015610820576040519150601f19603f3d011682016040523d82523d6000602084013e610825565b606091505b50805160000361085357604051633250574960e11b81526001600160a01b0385166004820152602401610382565b805181602001fd5b6001600160e01b03198116630a85bd0160e11b1461089757604051633250574960e11b81526001600160a01b0385166004820152602401610382565b5050505050565b606060006108ab83610b54565b600101905060008167ffffffffffffffff8111156108cb576108cb611107565b6040519080825280601f01601f1916602001820160405280156108f5576020820181803683370190505b5090508181016020015b600019016f181899199a1a9b1b9c1cb0b131b232b360811b600a86061a8153600a85049450846108ff57509392505050565b60006001600160e01b031982166380ac58cd60e01b148061096257506001600160e01b03198216635b5e139f60e01b145b8061027857506301ffc9a760e01b6001600160e01b0319831614610278565b808061099557506001600160a01b03821615155b15610a575760006109a584610616565b90506001600160a01b038316158015906109d15750826001600160a01b0316816001600160a01b031614155b80156109e457506109e281846105c3565b155b15610a0d5760405163a9fbf51f60e01b81526001600160a01b0384166004820152602401610382565b8115610a555783856001600160a01b0316826001600160a01b03167f8c5be1e5ebec7d5bd14f71427d1e84f3dd0314c0f7b2291e5b200ac8c7c3b92560405160405180910390a45b505b5050600090815260046020526040902080546001600160a01b0319166001600160a01b0392909216919091179055565b600080610a95858585610c2c565b90506001600160a01b038116610af257610aed84600880546000838152600960205260408120829055600182018355919091527ff3f7a9fe364faab93b216da50a3214154f22a0a2b415b23a84c8169e8b636ee30155565b610b15565b846001600160a01b0316816001600160a01b031614610b1557610b158185610d25565b6001600160a01b038516610b3157610b2c84610db6565b6106ce565b846001600160a01b0316816001600160a01b0316146106ce576106ce8585610e65565b60008072184f03e93ff9f4daa797ed6e38ed64bf6a1f0160401b8310610b935772184f03e93ff9f4daa797ed6e38ed64bf6a1f0160401b830492506040015b6d04ee2d6d415b85acef81000000008310610bbf576d04ee2d6d415b85acef8100000000830492506020015b662386f26fc100008310610bdd57662386f26fc10000830492506010015b6305f5e1008310610bf5576305f5e100830492506008015b6127108310610c0957612710830492506004015b60648310610c1b576064830492506002015b600a83106102785760010192915050565b6000828152600260205260408120546001600160a01b0390811690831615610c5957610c59818486610eb5565b6001600160a01b03811615610c9757610c76600085600080610981565b6001600160a01b038116600090815260036020526040902080546000190190555b6001600160a01b03851615610cc6576001600160a01b0385166000908152600360205260409020805460010190555b60008481526002602052604080822080546001600160a01b0319166001600160a01b0389811691821790925591518793918516917fddf252ad1be2c89b69c2b068fc378daa952ba7f163c4a11628f55a4df523b3ef91a4949350505050565b6000610d30836104d5565b600083815260076020526040902054909150808214610d83576001600160a01b03841660009081526006602090815260408083208584528252808320548484528184208190558352600790915290208190555b5060009182526007602090815260408084208490556001600160a01b039094168352600681528383209183525290812055565b600854600090610dc890600190611305565b60008381526009602052604081205460088054939450909284908110610df057610df0611266565b906000526020600020015490508060088381548110610e1157610e11611266565b6000918252602080832090910192909255828152600990915260408082208490558582528120556008805480610e4957610e49611326565b6001900381819060005260206000200160009055905550505050565b60006001610e72846104d5565b610e7c9190611305565b6001600160a01b039093166000908152600660209081526040808320868452825280832085905593825260079052919091209190915550565b610ec0838383610f19565b61046c576001600160a01b038316610eee57604051637e27328960e01b815260048101829052602401610382565b60405163177e802f60e01b81526001600160a01b038316600482015260248101829052604401610382565b60006001600160a01b038316158015906106ce5750826001600160a01b0316846001600160a01b03161480610f535750610f5384846105c3565b806106ce5750506000908152600460205260409020546001600160a01b03908116911614919050565b6001600160e01b031981168114610f9257600080fd5b50565b600060208284031215610fa757600080fd5b81356105bc81610f7c565b60005b83811015610fcd578181015183820152602001610fb5565b50506000910152565b60008151808452610fee816020860160208601610fb2565b601f01601f19169290920160200192915050565b6020815260006105bc6020830184610fd6565b60006020828403121561102757600080fd5b5035919050565b80356001600160a01b038116811461104557600080fd5b919050565b6000806040838503121561105d57600080fd5b6110668361102e565b946020939093013593505050565b60008060006060848603121561108957600080fd5b6110928461102e565b92506110a06020850161102e565b9150604084013590509250925092565b6000602082840312156110c257600080fd5b6105bc8261102e565b600080604083850312156110de57600080fd5b6110e78361102e565b9150602083013580151581146110fc57600080fd5b809150509250929050565b634e487b7160e01b600052604160045260246000fd5b6000806000806080858703121561113357600080fd5b61113c8561102e565b935061114a6020860161102e565b925060408501359150606085013567ffffffffffffffff8082111561116e57600080fd5b818701915087601f83011261118257600080fd5b81358181111561119457611194611107565b604051601f8201601f19908116603f011681019083821181831017156111bc576111bc611107565b816040528281528a60208487010111156111d557600080fd5b82602086016020830137600060208483010152809550505050505092959194509250565b6000806040838503121561120c57600080fd5b6112158361102e565b91506112236020840161102e565b90509250929050565b600181811c9082168061124057607f821691505b60208210810361126057634e487b7160e01b600052602260045260246000fd5b50919050565b634e487b7160e01b600052603260045260246000fd5b6000835161128e818460208801610fb2565b8351908301906112a2818360208801610fb2565b01949350505050565b6001600160a01b03858116825284166020820152604081018390526080606082018190526000906112de90830184610fd6565b9695505050505050565b6000602082840312156112fa57600080fd5b81516105bc81610f7c565b8181038181111561027857634e487b7160e01b600052601160045260246000fd5b634e487b7160e01b600052603160045260246000fdfea26469706673582212208a4fa10c8995f3de135b86ecf8dc7695916d3487eec682a5d8019113afbaa4a564736f6c63430008150033",
    "linkReferences": {}
  },
  "methodIdentifiers": {
    "approve(address,uint256)": "095ea7b3",
    "balanceOf(address)": "70a08231",
    "getApproved(uint256)": "081812fc",
    "isApprovedForAll(address,address)": "e985e9c5",
    "mint()": "1249c58b",
    "name()": "06fdde03",
    "ownerOf(uint256)": "6352211e",
    "safeTransferFrom(address,address,uint256)": "42842e0e",
    "safeTransferFrom(address,address,uint256,bytes)": "b88d4fde",
    "setApprovalForAll(address,bool)": "a22cb465",
    "supportsInterface(bytes4)": "01ffc9a7",
    "symbol()": "95d89b41",
    "tokenByIndex(uint256)": "4f6ccce7",
    "tokenOfOwnerByIndex(address,uint256)": "2f745c59",
    "tokenURI(uint256)": "c87b56dd",
    "totalSupply()": "18160ddd",
    "transferFrom(address,address,uint256)": "23b872dd"
  },
  "id": 33
}