{
  "abi": [
    {
      "inputs": [
        {
          "internalType": "address",
          "name": "_nftContract",
          "type": "address"
        },
        {
          "internalType": "address",
          "name": "_axiomV2QueryAddress",
          "type": "address"
        },
        {
          "internalType": "bytes32",
          "name": "_axiomCallbackQuerySchema",
          "type": "bytes32"
        },
        {
          "internalType": "uint256",
          "name": "_defaultTaxRate",
          "type": "uint256"
        },
        {
          "internalType": "uint256",
          "name": "_defaultRewardRate",
          "type": "uint256"
        }
      ],
      "stateMutability": "nonpayable",
      "type": "constructor"
    },
    {
      "inputs": [
        {
          "internalType": "address",
          "name": "spender",
          "type": "address"
        },
        {
          "internalType": "uint256",
          "name": "allowance",
          "type": "uint256"
        },
        {
          "internalType": "uint256",
          "name": "needed",
          "type": "uint256"
        }
      ],
      "name": "ERC20InsufficientAllowance",
      "type": "error"
    },
    {
      "inputs": [
        {
          "internalType": "address",
          "name": "sender",
          "type": "address"
        },
        {
          "internalType": "uint256",
          "name": "balance",
          "type": "uint256"
        },
        {
          "internalType": "uint256",
          "name": "needed",
          "type": "uint256"
        }
      ],
      "name": "ERC20InsufficientBalance",
      "type": "error"
    },
    {
      "inputs": [
        {
          "internalType": "address",
          "name": "approver",
          "type": "address"
        }
      ],
      "name": "ERC20InvalidApprover",
      "type": "error"
    },
    {
      "inputs": [
        {
          "internalType": "address",
          "name": "receiver",
          "type": "address"
        }
      ],
      "name": "ERC20InvalidReceiver",
      "type": "error"
    },
    {
      "inputs": [
        {
          "internalType": "address",
          "name": "sender",
          "type": "address"
        }
      ],
      "name": "ERC20InvalidSender",
      "type": "error"
    },
    {
      "inputs": [
        {
          "internalType": "address",
          "name": "spender",
          "type": "address"
        }
      ],
      "name": "ERC20InvalidSpender",
      "type": "error"
    },
    {
      "anonymous": false,
      "inputs": [
        {
          "indexed": true,
          "internalType": "address",
          "name": "owner",
          "type": "address"
        },
        {
          "indexed": true,
          "internalType": "address",
          "name": "spender",
          "type": "address"
        },
        {
          "indexed": false,
          "internalType": "uint256",
          "name": "value",
          "type": "uint256"
        }
      ],
      "name": "Approval",
      "type": "event"
    },
    {
      "anonymous": false,
      "inputs": [
        {
          "indexed": true,
          "internalType": "uint64",
          "name": "sourceChainId",
          "type": "uint64"
        },
        {
          "indexed": false,
          "internalType": "address",
          "name": "callerAddr",
          "type": "address"
        },
        {
          "indexed": true,
          "internalType": "bytes32",
          "name": "querySchema",
          "type": "bytes32"
        },
        {
          "indexed": true,
          "internalType": "uint256",
          "name": "queryId",
          "type": "uint256"
        }
      ],
      "name": "AxiomV2Call",
      "type": "event"
    },
    {
      "anonymous": false,
      "inputs": [
        {
          "indexed": true,
          "internalType": "address",
          "name": "callerAddr",
          "type": "address"
        },
        {
          "indexed": true,
          "internalType": "uint256",
          "name": "tokenId",
          "type": "uint256"
        },
        {
          "indexed": false,
          "internalType": "uint256",
          "name": "queryId",
          "type": "uint256"
        },
        {
          "indexed": false,
          "internalType": "uint256",
          "name": "newTaxRate",
          "type": "uint256"
        },
        {
          "indexed": false,
          "internalType": "uint256",
          "name": "newRewardRate",
          "type": "uint256"
        },
        {
          "indexed": false,
          "internalType": "uint256",
          "name": "totalVotes",
          "type": "uint256"
        }
      ],
      "name": "ParametersUpdated",
      "type": "event"
    },
    {
      "anonymous": false,
      "inputs": [
        {
          "indexed": true,
          "internalType": "address",
          "name": "from",
          "type": "address"
        },
        {
          "indexed": true,
          "internalType": "address",
          "name": "to",
          "type": "address"
        },
        {
          "indexed": false,
          "internalType": "uint256",
          "name": "value",
          "type": "uint256"
        }
      ],
      "name": "Transfer",
      "type": "event"
    },
    {
      "inputs": [
        {
          "internalType": "address",
          "name": "owner",
          "type": "address"
        },
        {
          "internalType": "address",
          "name": "spender",
          "type": "address"
        }
      ],
      "name": "allowance",
      "outputs": [
        {
          "internalType": "uint256",
          "name": "",
          "type": "uint256"
        }
      ],
      "stateMutability": "view",
      "type": "function"
    },
    {
      "inputs": [
        {
          "internalType": "address",
          "name": "spender",
          "type": "address"
        },
        {
          "internalType": "uint256",
          "name": "value",
          "type": "uint256"
        }
      ],
      "name": "approve",
      "outputs": [
        {
          "internalType": "bool",
          "name": "",
          "type": "bool"
        }
      ],
      "stateMutability": "nonpayable",
      "type": "function"
    },
    {
      "inputs": [],
      "name": "axiomCallbackQuerySchema",
      "outputs": [
        {
          "internalType": "bytes32",
          "name": "",
          "type": "bytes32"
        }
      ],
      "stateMutability": "view",
      "type": "function"
    },
    {
      "inputs": [
        {
          "internalType": "uint64",
          "name": "sourceChainId",
          "type": "uint64"
        },
        {
          "internalType": "address",
          "name": "callerAddr",
          "type": "address"
        },
        {
          "internalType": "bytes32",
          "name": "querySchema",
          "type": "bytes32"
        },
        {
          "internalType": "uint256",
          "name": "queryId",
          "type": "uint256"
        },
        {
          "internalType": "bytes32[]",
          "name": "axiomResults",
          "type": "bytes32[]"
        },
        {
          "internalType": "bytes",
          "name": "callbackExtraData",
          "type": "bytes"
        }
      ],
      "name": "axiomV2Callback",
      "outputs": [],
      "stateMutability": "nonpayable",
      "type": "function"
    },
    {
      "inputs": [],
      "name": "axiomV2QueryAddress",
      "outputs": [
        {
          "internalType": "address",
          "name": "",
          "type": "address"
        }
      ],
      "stateMutability": "view",
      "type": "function"
    },
    {
      "inputs": [
        {
          "internalType": "address",
          "name": "account",
          "type": "address"
        }
      ],
      "name": "balanceOf",
      "outputs": [
        {
          "internalType": "uint256",
          "name": "",
          "type": "uint256"
        }
      ],
      "stateMutability": "view",
      "type": "function"
    },
    {
      "inputs": [],
      "name": "decimals",
      "outputs": [
        {
          "internalType": "uint8",
          "name": "",
          "type": "uint8"
        }
      ],
      "stateMutability": "view",
      "type": "function"
    },
    {
      "inputs": [
        {
          "internalType": "address",
          "name": "user",
          "type": "address"
        },
        {
          "internalType": "uint256",
          "name": "tokenId",
          "type": "uint256"
        }
      ],
      "name": "didUserVote",
      "outputs": [
        {
          "internalType": "bool",
          "name": "",
          "type": "bool"
        }
      ],
      "stateMutability": "view",
      "type": "function"
    },
    {
      "inputs": [
        {
          "internalType": "bytes32",
          "name": "",
          "type": "bytes32"
        }
      ],
      "name": "didVote",
      "outputs": [
        {
          "internalType": "bool",
          "name": "",
          "type": "bool"
        }
      ],
      "stateMutability": "view",
      "type": "function"
    },
    {
      "inputs": [],
      "name": "name",
      "outputs": [
        {
          "internalType": "string",
          "name": "",
          "type": "string"
        }
      ],
      "stateMutability": "view",
      "type": "function"
    },
    {
      "inputs": [],
      "name": "rewardRate",
      "outputs": [
        {
          "internalType": "uint256",
          "name": "",
          "type": "uint256"
        }
      ],
      "stateMutability": "view",
      "type": "function"
    },
    {
      "inputs": [],
      "name": "symbol",
      "outputs": [
        {
          "internalType": "string",
          "name": "",
          "type": "string"
        }
      ],
      "stateMutability": "view",
      "type": "function"
    },
    {
      "inputs": [],
      "name": "taxRate",
      "outputs": [
        {
          "internalType": "uint256",
          "name": "",
          "type": "uint256"
        }
      ],
      "stateMutability": "view",
      "type": "function"
    },
    {
      "inputs": [],
      "name": "totalSupply",
      "outputs": [
        {
          "internalType": "uint256",
          "name": "",
          "type": "uint256"
        }
      ],
      "stateMutability": "view",
      "type": "function"
    },
    {
      "inputs": [],
      "name": "totalVotes",
      "outputs": [
        {
          "internalType": "uint256",
          "name": "",
          "type": "uint256"
        }
      ],
      "stateMutability": "view",
      "type": "function"
    },
    {
      "inputs": [
        {
          "internalType": "address",
          "name": "to",
          "type": "address"
        },
        {
          "internalType": "uint256",
          "name": "value",
          "type": "uint256"
        }
      ],
      "name": "transfer",
      "outputs": [
        {
          "internalType": "bool",
          "name": "",
          "type": "bool"
        }
      ],
      "stateMutability": "nonpayable",
      "type": "function"
    },
    {
      "inputs": [
        {
          "internalType": "address",
          "name": "from",
          "type": "address"
        },
        {
          "internalType": "address",
          "name": "to",
          "type": "address"
        },
        {
          "internalType": "uint256",
          "name": "value",
          "type": "uint256"
        }
      ],
      "name": "transferFrom",
      "outputs": [
        {
          "internalType": "bool",
          "name": "",
          "type": "bool"
        }
      ],
      "stateMutability": "nonpayable",
      "type": "function"
    },
    {
      "inputs": [],
      "name": "uselessNFT",
      "outputs": [
        {
          "internalType": "contract UselessNFT",
          "name": "",
          "type": "address"
        }
      ],
      "stateMutability": "view",
      "type": "function"
    }
  ],
  "bytecode": {
    "object": "0x60a06040523480156200001157600080fd5b506040516200131938038062001319833981016040819052620000349162000104565b836040518060400160405280601881526020017f5573656c65737320476f7665726e616e636520546f6b656e0000000000000000815250604051806040016040528060038152602001621551d560ea1b8152508160039081620000989190620001fc565b506004620000a78282620001fc565b5050506001600160a01b03908116608052600593909355600691909155600755600a80546001600160a01b031916939091169290921790915550620002c8565b80516001600160a01b0381168114620000ff57600080fd5b919050565b600080600080600060a086880312156200011d57600080fd5b6200012886620000e7565b94506200013860208701620000e7565b6040870151606088015160809098015196999198509695945092505050565b634e487b7160e01b600052604160045260246000fd5b600181811c908216806200018257607f821691505b602082108103620001a357634e487b7160e01b600052602260045260246000fd5b50919050565b601f821115620001f757600081815260208120601f850160051c81016020861015620001d25750805b601f850160051c820191505b81811015620001f357828155600101620001de565b5050505b505050565b81516001600160401b0381111562000218576200021862000157565b62000230816200022984546200016d565b84620001a9565b602080601f8311600181146200026857600084156200024f5750858301515b600019600386901b1c1916600185901b178555620001f3565b600085815260208120601f198616915b82811015620002995788860151825594840194600190910190840162000278565b5085821015620002b85787850151600019600388901b60f8161c191681555b5050505050600190811b01905550565b60805161102e620002eb600039600081816101930152610420015261102e6000f3fe608060405234801561001057600080fd5b50600436106101165760003560e01c80637b0a47ee116100a2578063cd1cd72511610071578063cd1cd7251461029b578063dc5cd53c146102a4578063dd62ed3e146102b9578063e96140ff146102f2578063eb21949a1461030557600080fd5b80637b0a47ee1461020e5780638712716b1461021757806395d89b4114610280578063a9059cbb1461028857600080fd5b806323b872dd116100e957806323b872dd1461017b5780632a75d3be1461018e578063313ce567146101cd57806370a08231146101dc578063771a3a1d1461020557600080fd5b806306fdde031461011b578063095ea7b3146101395780630d15fd771461015c57806318160ddd14610173575b600080fd5b610123610328565b6040516101309190610cdb565b60405180910390f35b61014c610147366004610d41565b6103ba565b6040519015158152602001610130565b61016560085481565b604051908152602001610130565b600254610165565b61014c610189366004610d6d565b6103d4565b6101b57f000000000000000000000000000000000000000000000000000000000000000081565b6040516001600160a01b039091168152602001610130565b60405160128152602001610130565b6101656101ea366004610dae565b6001600160a01b031660009081526020819052604090205490565b61016560065481565b61016560075481565b61014c610225366004610d41565b6040516bffffffffffffffffffffffff19606084901b16602082015260348101829052600090819060540160408051808303601f1901815291815281516020928301206000908152600990925290205460ff16949350505050565b6101236103f8565b61014c610296366004610d41565b610407565b61016560055481565b6102b76102b2366004610e1b565b610415565b005b6101656102c7366004610efd565b6001600160a01b03918216600090815260016020908152604080832093909416825291909152205490565b600a546101b5906001600160a01b031681565b61014c610313366004610f36565b60096020526000908152604090205460ff1681565b60606003805461033790610f4f565b80601f016020809104026020016040519081016040528092919081815260200182805461036390610f4f565b80156103b05780601f10610385576101008083540402835291602001916103b0565b820191906000526020600020905b81548152906001019060200180831161039357829003601f168201915b5050505050905090565b6000336103c881858561051d565b60019150505b92915050565b6000336103e285828561052f565b6103ed8585856105ad565b506001949350505050565b60606004805461033790610f4f565b6000336103c88185856105ad565b336001600160a01b037f000000000000000000000000000000000000000000000000000000000000000016146104ac5760405162461bcd60e51b815260206004820152603160248201527f4178696f6d5632436c69656e743a2063616c6c6572206d757374206265206178604482015270696f6d563251756572794164647265737360781b60648201526084015b60405180910390fd5b6040516001600160a01b03881681528590879067ffffffffffffffff8b16907fc6d3309bf887e48755c9a455e332b73641b6bf2fd018e3b608bf21676c4c0af59060200160405180910390a461050388888861060c565b61051388888888888888886106cd565b5050505050505050565b61052a8383836001610adc565b505050565b6001600160a01b0383811660009081526001602090815260408083209386168352929052205460001981146105a7578181101561059857604051637dc7a0d960e11b81526001600160a01b038416600482015260248101829052604481018390526064016104a3565b6105a784848484036000610adc565b50505050565b6001600160a01b0383166105d757604051634b637e8f60e11b8152600060048201526024016104a3565b6001600160a01b0382166106015760405163ec442f0560e01b8152600060048201526024016104a3565b61052a838383610bb1565b468367ffffffffffffffff161461067c5760405162461bcd60e51b815260206004820152602e60248201527f4178696f6d56323a20736f75726365436861696e4964206d757374206265206360448201526d1d5c9c995b9d0818da185a5b925960921b60648201526084016104a3565b600554811461052a5760405162461bcd60e51b815260206004820152601e60248201527f4178696f6d56323a20717565727920736368656d61206d69736d61746368000060448201526064016104a3565b6000848460008181106106e2576106e2610f89565b9050602002013560001c905060008585600181811061070357610703610f89565b9050602002013560001c905060008686600281811061072457610724610f89565b600a546040516331a9108f60e11b815260048101879052602092909202939093013593506000926001600160a01b03169150636352211e90602401602060405180830381865afa15801561077c573d6000803e3d6000fd5b505050506040513d601f19601f820116820180604052508101906107a09190610f9f565b6040516bffffffffffffffffffffffff19606087901b1660208201526034810185905290915060009060540160408051601f1981840301815291815281516020928301206000818152600990935291205490915060ff16156108745760405162461bcd60e51b815260206004820152604160248201527f5573656c657373476f7665726e616e6365546f6b656e3a206e6674486f6c646560448201527f7220616c726561647920766f7465642077697468207468697320746f6b656e496064820152601960fa1b608482015260a4016104a3565b8b6001600160a01b0316856001600160a01b0316146108ee5760405162461bcd60e51b815260206004820152603060248201527f5573656c657373476f7665726e616e6365546f6b656e3a206e6674486f6c646560448201526f391036bab9ba1031329031b0b63632b960811b60648201526084016104a3565b816001600160a01b0316856001600160a01b0316146109755760405162461bcd60e51b815260206004820152603760248201527f5573656c657373476f7665726e616e6365546f6b656e3a206e6674486f6c646560448201527f72206d7573742062652063757272656e74206f776e657200000000000000000060648201526084016104a3565b826001036109cf576001600660008282546109909190610fd2565b925050819055506001600760008282546109aa9190610fd2565b925050819055506001600860008282546109c49190610fd2565b90915550610a589050565b82600203610a04576001600660008282546109ea9190610fe5565b925050819055506001600760008282546109aa9190610fe5565b60405162461bcd60e51b8152602060048201526024808201527f5573656c657373476f7665726e616e6365546f6b656e3a20696e76616c696420604482015263766f746560e01b60648201526084016104a3565b600081815260096020908152604091829020805460ff1916600117905560065460075460085484518f815293840192909252828401526060820152905185916001600160a01b038f16917f307727c989f3c87a872f36c0c665dec093dfee07d03e13be7d3d624637f43681916080908290030190a350505050505050505050505050565b6001600160a01b038416610b065760405163e602df0560e01b8152600060048201526024016104a3565b6001600160a01b038316610b3057604051634a1406b160e11b8152600060048201526024016104a3565b6001600160a01b03808516600090815260016020908152604080832093871683529290522082905580156105a757826001600160a01b0316846001600160a01b03167f8c5be1e5ebec7d5bd14f71427d1e84f3dd0314c0f7b2291e5b200ac8c7c3b92584604051610ba391815260200190565b60405180910390a350505050565b6001600160a01b038316610bdc578060026000828254610bd19190610fd2565b90915550610c4e9050565b6001600160a01b03831660009081526020819052604090205481811015610c2f5760405163391434e360e21b81526001600160a01b038516600482015260248101829052604481018390526064016104a3565b6001600160a01b03841660009081526020819052604090209082900390555b6001600160a01b038216610c6a57600280548290039055610c89565b6001600160a01b03821660009081526020819052604090208054820190555b816001600160a01b0316836001600160a01b03167fddf252ad1be2c89b69c2b068fc378daa952ba7f163c4a11628f55a4df523b3ef83604051610cce91815260200190565b60405180910390a3505050565b600060208083528351808285015260005b81811015610d0857858101830151858201604001528201610cec565b506000604082860101526040601f19601f8301168501019250505092915050565b6001600160a01b0381168114610d3e57600080fd5b50565b60008060408385031215610d5457600080fd5b8235610d5f81610d29565b946020939093013593505050565b600080600060608486031215610d8257600080fd5b8335610d8d81610d29565b92506020840135610d9d81610d29565b929592945050506040919091013590565b600060208284031215610dc057600080fd5b8135610dcb81610d29565b9392505050565b60008083601f840112610de457600080fd5b50813567ffffffffffffffff811115610dfc57600080fd5b602083019150836020828501011115610e1457600080fd5b9250929050565b60008060008060008060008060c0898b031215610e3757600080fd5b883567ffffffffffffffff8082168214610e5057600080fd5b90985060208a013590610e6282610d29565b90975060408a0135965060608a0135955060808a01359080821115610e8657600080fd5b818b0191508b601f830112610e9a57600080fd5b813581811115610ea957600080fd5b8c60208260051b8501011115610ebe57600080fd5b6020830196508095505060a08b0135915080821115610edc57600080fd5b50610ee98b828c01610dd2565b999c989b5096995094979396929594505050565b60008060408385031215610f1057600080fd5b8235610f1b81610d29565b91506020830135610f2b81610d29565b809150509250929050565b600060208284031215610f4857600080fd5b5035919050565b600181811c90821680610f6357607f821691505b602082108103610f8357634e487b7160e01b600052602260045260246000fd5b50919050565b634e487b7160e01b600052603260045260246000fd5b600060208284031215610fb157600080fd5b8151610dcb81610d29565b634e487b7160e01b600052601160045260246000fd5b808201808211156103ce576103ce610fbc565b818103818111156103ce576103ce610fbc56fea2646970667358221220387d4888a93a38e968fac8b923cc820784530b81609412aefc293036f437acec64736f6c63430008150033",
    "linkReferences": {}
  },
  "methodIdentifiers": {
    "allowance(address,address)": "dd62ed3e",
    "approve(address,uint256)": "095ea7b3",
    "axiomCallbackQuerySchema()": "cd1cd725",
    "axiomV2Callback(uint64,address,bytes32,uint256,bytes32[],bytes)": "dc5cd53c",
    "axiomV2QueryAddress()": "2a75d3be",
    "balanceOf(address)": "70a08231",
    "decimals()": "313ce567",
    "didUserVote(address,uint256)": "8712716b",
    "didVote(bytes32)": "eb21949a",
    "name()": "06fdde03",
    "rewardRate()": "7b0a47ee",
    "symbol()": "95d89b41",
    "taxRate()": "771a3a1d",
    "totalSupply()": "18160ddd",
    "totalVotes()": "0d15fd77",
    "transfer(address,uint256)": "a9059cbb",
    "transferFrom(address,address,uint256)": "23b872dd",
    "uselessNFT()": "e96140ff"
  },
  "id": 32
}